{"abi":[{"type":"constructor","inputs":[{"name":"initialSupply","type":"uint256","internalType":"uint256"}],"stateMutability":"nonpayable"},{"type":"function","name":"balanceOf","inputs":[{"name":"","type":"address","internalType":"address"}],"outputs":[{"name":"","type":"uint256","internalType":"uint256"}],"stateMutability":"view"},{"type":"function","name":"name","inputs":[],"outputs":[{"name":"","type":"string","internalType":"string"}],"stateMutability":"view"},{"type":"function","name":"symbol","inputs":[],"outputs":[{"name":"","type":"string","internalType":"string"}],"stateMutability":"view"},{"type":"function","name":"transfer","inputs":[{"name":"_to","type":"address","internalType":"address"},{"name":"_value","type":"uint256","internalType":"uint256"}],"outputs":[{"name":"success","type":"bool","internalType":"bool"}],"stateMutability":"nonpayable"},{"type":"event","name":"Transfer","inputs":[{"name":"from","type":"address","indexed":true,"internalType":"address"},{"name":"to","type":"address","indexed":true,"internalType":"address"},{"name":"value","type":"uint256","indexed":false,"internalType":"uint256"}],"anonymous":false}],"bytecode":{"object":"0x60806040526040518060400160405280600781526020017f4d79546f6b656e000000000000000000000000000000000000000000000000008152505f9081610047919061033f565b506040518060400160405280600381526020017f4d544b00000000000000000000000000000000000000000000000000000000008152506001908161008c919061033f565b50348015610098575f5ffd5b50604051610b93380380610b9383398181016040528101906100ba919061043c565b8060025f3373ffffffffffffffffffffffffffffffffffffffff1673ffffffffffffffffffffffffffffffffffffffff1681526020019081526020015f208190555050610467565b5f81519050919050565b7f4e487b71000000000000000000000000000000000000000000000000000000005f52604160045260245ffd5b7f4e487b71000000000000000000000000000000000000000000000000000000005f52602260045260245ffd5b5f600282049050600182168061017d57607f821691505b6020821081036101905761018f610139565b5b50919050565b5f819050815f5260205f209050919050565b5f6020601f8301049050919050565b5f82821b905092915050565b5f600883026101f27fffffffffffffffffffffffffffffffffffffffffffffffffffffffffffffffff826101b7565b6101fc86836101b7565b95508019841693508086168417925050509392505050565b5f819050919050565b5f819050919050565b5f61024061023b61023684610214565b61021d565b610214565b9050919050565b5f819050919050565b61025983610226565b61026d61026582610247565b8484546101c3565b825550505050565b5f5f905090565b610284610275565b61028f818484610250565b505050565b5b818110156102b2576102a75f8261027c565b600181019050610295565b5050565b601f8211156102f7576102c881610196565b6102d1846101a8565b810160208510156102e0578190505b6102f46102ec856101a8565b830182610294565b50505b505050565b5f82821c905092915050565b5f6103175f19846008026102fc565b1980831691505092915050565b5f61032f8383610308565b9150826002028217905092915050565b61034882610102565b67ffffffffffffffff8111156103615761036061010c565b5b61036b8254610166565b6103768282856102b6565b5f60209050601f8311600181146103a7575f8415610395578287015190505b61039f8582610324565b865550610406565b601f1984166103b586610196565b5f5b828110156103dc578489015182556001820191506020850194506020810190506103b7565b868310156103f957848901516103f5601f891682610308565b8355505b6001600288020188555050505b505050505050565b5f5ffd5b61041b81610214565b8114610425575f5ffd5b50565b5f8151905061043681610412565b92915050565b5f602082840312156104515761045061040e565b5b5f61045e84828501610428565b91505092915050565b61071f806104745f395ff3fe608060405234801561000f575f5ffd5b506004361061004a575f3560e01c806306fdde031461004e57806370a082311461006c57806395d89b411461009c578063a9059cbb146100ba575b5f5ffd5b6100566100ea565b604051610063919061041c565b60405180910390f35b6100866004803603810190610081919061049a565b610175565b60405161009391906104dd565b60405180910390f35b6100a461018a565b6040516100b1919061041c565b60405180910390f35b6100d460048036038101906100cf9190610520565b610216565b6040516100e19190610578565b60405180910390f35b5f80546100f6906105be565b80601f0160208091040260200160405190810160405280929190818152602001828054610122906105be565b801561016d5780601f106101445761010080835404028352916020019161016d565b820191905f5260205f20905b81548152906001019060200180831161015057829003601f168201915b505050505081565b6002602052805f5260405f205f915090505481565b60018054610197906105be565b80601f01602080910402602001604051908101604052809291908181526020018280546101c3906105be565b801561020e5780601f106101e55761010080835404028352916020019161020e565b820191905f5260205f20905b8154815290600101906020018083116101f157829003601f168201915b505050505081565b5f8160025f3373ffffffffffffffffffffffffffffffffffffffff1673ffffffffffffffffffffffffffffffffffffffff1681526020019081526020015f20541015610297576040517f08c379a000000000000000000000000000000000000000000000000000000000815260040161028e90610638565b60405180910390fd5b8160025f3373ffffffffffffffffffffffffffffffffffffffff1673ffffffffffffffffffffffffffffffffffffffff1681526020019081526020015f205f8282546102e39190610683565b925050819055508160025f8573ffffffffffffffffffffffffffffffffffffffff1673ffffffffffffffffffffffffffffffffffffffff1681526020019081526020015f205f82825461033691906106b6565b925050819055508273ffffffffffffffffffffffffffffffffffffffff163373ffffffffffffffffffffffffffffffffffffffff167fddf252ad1be2c89b69c2b068fc378daa952ba7f163c4a11628f55a4df523b3ef8460405161039a91906104dd565b60405180910390a36001905092915050565b5f81519050919050565b5f82825260208201905092915050565b8281835e5f83830152505050565b5f601f19601f8301169050919050565b5f6103ee826103ac565b6103f881856103b6565b93506104088185602086016103c6565b610411816103d4565b840191505092915050565b5f6020820190508181035f83015261043481846103e4565b905092915050565b5f5ffd5b5f73ffffffffffffffffffffffffffffffffffffffff82169050919050565b5f61046982610440565b9050919050565b6104798161045f565b8114610483575f5ffd5b50565b5f8135905061049481610470565b92915050565b5f602082840312156104af576104ae61043c565b5b5f6104bc84828501610486565b91505092915050565b5f819050919050565b6104d7816104c5565b82525050565b5f6020820190506104f05f8301846104ce565b92915050565b6104ff816104c5565b8114610509575f5ffd5b50565b5f8135905061051a816104f6565b92915050565b5f5f604083850312156105365761053561043c565b5b5f61054385828601610486565b92505060206105548582860161050c565b9150509250929050565b5f8115159050919050565b6105728161055e565b82525050565b5f60208201905061058b5f830184610569565b92915050565b7f4e487b71000000000000000000000000000000000000000000000000000000005f52602260045260245ffd5b5f60028204905060018216806105d557607f821691505b6020821081036105e8576105e7610591565b5b50919050565b7f496e73756666696369656e742062616c616e63650000000000000000000000005f82015250565b5f6106226014836103b6565b915061062d826105ee565b602082019050919050565b5f6020820190508181035f83015261064f81610616565b9050919050565b7f4e487b71000000000000000000000000000000000000000000000000000000005f52601160045260245ffd5b5f61068d826104c5565b9150610698836104c5565b92508282039050818111156106b0576106af610656565b5b92915050565b5f6106c0826104c5565b91506106cb836104c5565b92508282019050808211156106e3576106e2610656565b5b9291505056fea2646970667358221220a974096d4f3cea50ed67641991d3d88d75da4f8a14cbd42265eae9f9f3e71eed64736f6c634300081c0033","linkReferences":{}},"methodIdentifiers":{"balanceOf(address)":"70a08231","name()":"06fdde03","symbol()":"95d89b41","transfer(address,uint256)":"a9059cbb"},"id":0}